{
  "_format": "hh-sol-artifact-1",
  "contractName": "ERC20TokenStakingContract",
  "sourceName": "contracts/ERC20TokenStakingContract.sol",
  "abi": [
    {
      "inputs": [
        {
          "internalType": "address",
          "name": "_tokenAddress",
          "type": "address"
        }
      ],
      "stateMutability": "nonpayable",
      "type": "constructor"
    },
    {
      "inputs": [],
      "name": "OngoingStake",
      "type": "error"
    },
    {
      "inputs": [],
      "name": "ZeroAddressDetected",
      "type": "error"
    },
    {
      "inputs": [],
      "name": "insufficientFunds",
      "type": "error"
    },
    {
      "inputs": [],
      "name": "invalidInput",
      "type": "error"
    },
    {
      "inputs": [],
      "name": "invalidTransaction",
      "type": "error"
    },
    {
      "inputs": [],
      "name": "totalSupplyMaxedOut",
      "type": "error"
    },
    {
      "anonymous": false,
      "inputs": [
        {
          "indexed": true,
          "internalType": "address",
          "name": "owner",
          "type": "address"
        },
        {
          "indexed": true,
          "internalType": "uint256",
          "name": "amount",
          "type": "uint256"
        },
        {
          "indexed": true,
          "internalType": "uint256",
          "name": "lockTime",
          "type": "uint256"
        }
      ],
      "name": "depositSuccessful",
      "type": "event"
    },
    {
      "anonymous": false,
      "inputs": [
        {
          "indexed": true,
          "internalType": "uint256",
          "name": "stakedAmount",
          "type": "uint256"
        },
        {
          "indexed": true,
          "internalType": "uint256",
          "name": "reward",
          "type": "uint256"
        },
        {
          "indexed": true,
          "internalType": "uint256",
          "name": "totalAmount",
          "type": "uint256"
        }
      ],
      "name": "withdrawAllFundSuccessful",
      "type": "event"
    },
    {
      "anonymous": false,
      "inputs": [
        {
          "indexed": true,
          "internalType": "uint256",
          "name": "amount",
          "type": "uint256"
        },
        {
          "indexed": true,
          "internalType": "address",
          "name": "_address",
          "type": "address"
        }
      ],
      "name": "withdrawalSuccessful",
      "type": "event"
    },
    {
      "inputs": [],
      "name": "getStakeReward",
      "outputs": [
        {
          "internalType": "uint256",
          "name": "balance",
          "type": "uint256"
        }
      ],
      "stateMutability": "view",
      "type": "function"
    },
    {
      "inputs": [],
      "name": "myStakedBalance",
      "outputs": [
        {
          "internalType": "uint256",
          "name": "",
          "type": "uint256"
        }
      ],
      "stateMutability": "view",
      "type": "function"
    },
    {
      "inputs": [
        {
          "internalType": "uint256",
          "name": "nomcoinAmount",
          "type": "uint256"
        },
        {
          "internalType": "uint256",
          "name": "_stakeDurationInDays",
          "type": "uint256"
        }
      ],
      "name": "stakeDeposit",
      "outputs": [],
      "stateMutability": "nonpayable",
      "type": "function"
    },
    {
      "inputs": [],
      "name": "totalSupplyLeft",
      "outputs": [
        {
          "internalType": "uint256",
          "name": "",
          "type": "uint256"
        }
      ],
      "stateMutability": "view",
      "type": "function"
    },
    {
      "inputs": [],
      "name": "withdrawAllFunds",
      "outputs": [],
      "stateMutability": "nonpayable",
      "type": "function"
    },
    {
      "inputs": [],
      "name": "withdrawStakedAmount",
      "outputs": [],
      "stateMutability": "nonpayable",
      "type": "function"
    }
  ],
  "bytecode": "0x60806040523480156200001157600080fd5b50604051620012d6380380620012d6833981810160405281019062000037919062000129565b336000806101000a81548173ffffffffffffffffffffffffffffffffffffffff021916908373ffffffffffffffffffffffffffffffffffffffff16021790555080600160006101000a81548173ffffffffffffffffffffffffffffffffffffffff021916908373ffffffffffffffffffffffffffffffffffffffff160217905550506200015b565b600080fd5b600073ffffffffffffffffffffffffffffffffffffffff82169050919050565b6000620000f182620000c4565b9050919050565b6200010381620000e4565b81146200010f57600080fd5b50565b6000815190506200012381620000f8565b92915050565b600060208284031215620001425762000141620000bf565b5b6000620001528482850162000112565b91505092915050565b61116b806200016b6000396000f3fe608060405234801561001057600080fd5b50600436106100625760003560e01c80632603faf914610067578063491d1b801461007157806349649fbf1461008f5780638fb7094a14610099578063b7bec020146100b7578063d7ae8b74146100d5575b600080fd5b61006f6100f1565b005b6100796103d1565b6040516100869190610e0d565b60405180910390f35b6100976103d7565b005b6100a161073d565b6040516100ae9190610e0d565b60405180910390f35b6100bf610784565b6040516100cc9190610e0d565b60405180910390f35b6100ef60048036038101906100ea9190610e59565b6107ce565b005b6100f9610b57565b610101610bbf565b6000600360003373ffffffffffffffffffffffffffffffffffffffff1673ffffffffffffffffffffffffffffffffffffffff168152602001908152602001600020600001540361017d576040517f327c095600000000000000000000000000000000000000000000000000000000815260040160405180910390fd5b6000600360003373ffffffffffffffffffffffffffffffffffffffff1673ffffffffffffffffffffffffffffffffffffffff168152602001908152602001600020600001549050600360003373ffffffffffffffffffffffffffffffffffffffff1673ffffffffffffffffffffffffffffffffffffffff16815260200190815260200160002060000154600360003373ffffffffffffffffffffffffffffffffffffffff1673ffffffffffffffffffffffffffffffffffffffff16815260200190815260200160002060000160008282546102589190610ec8565b92505081905550600160009054906101000a900473ffffffffffffffffffffffffffffffffffffffff1673ffffffffffffffffffffffffffffffffffffffff1663a9059cbb33836040518363ffffffff1660e01b81526004016102bc929190610f3d565b6020604051808303816000875af11580156102db573d6000803e3d6000fd5b505050506040513d601f19601f820116820180604052508101906102ff9190610f9e565b506000600360003373ffffffffffffffffffffffffffffffffffffffff1673ffffffffffffffffffffffffffffffffffffffff168152602001908152602001600020600101819055503373ffffffffffffffffffffffffffffffffffffffff16600360003373ffffffffffffffffffffffffffffffffffffffff1673ffffffffffffffffffffffffffffffffffffffff168152602001908152602001600020600001547f792e47cb018dba4a9425c92940e7de830fabd755d42f8245d2b28d06b8a94c7660405160405180910390a350565b60025481565b6103df610b57565b6103e7610bbf565b6000600360003373ffffffffffffffffffffffffffffffffffffffff1673ffffffffffffffffffffffffffffffffffffffff1681526020019081526020016000206000015403610463576040517f327c095600000000000000000000000000000000000000000000000000000000815260040160405180910390fd5b6000600460003373ffffffffffffffffffffffffffffffffffffffff1673ffffffffffffffffffffffffffffffffffffffff1681526020019081526020016000205490506000600360003373ffffffffffffffffffffffffffffffffffffffff1673ffffffffffffffffffffffffffffffffffffffff168152602001908152602001600020600001549050600082600360003373ffffffffffffffffffffffffffffffffffffffff1673ffffffffffffffffffffffffffffffffffffffff1681526020019081526020016000206000015461053e9190610fcb565b90506000600460003373ffffffffffffffffffffffffffffffffffffffff1673ffffffffffffffffffffffffffffffffffffffff16815260200190815260200160002081905550600360003373ffffffffffffffffffffffffffffffffffffffff1673ffffffffffffffffffffffffffffffffffffffff16815260200190815260200160002060000154600360003373ffffffffffffffffffffffffffffffffffffffff1673ffffffffffffffffffffffffffffffffffffffff16815260200190815260200160002060000160008282546106199190610ec8565b92505081905550600160009054906101000a900473ffffffffffffffffffffffffffffffffffffffff1673ffffffffffffffffffffffffffffffffffffffff1663a9059cbb33836040518363ffffffff1660e01b815260040161067d929190610f3d565b6020604051808303816000875af115801561069c573d6000803e3d6000fd5b505050506040513d601f19601f820116820180604052508101906106c09190610f9e565b506000600360003373ffffffffffffffffffffffffffffffffffffffff1673ffffffffffffffffffffffffffffffffffffffff168152602001908152602001600020600101819055508083837f07d22063a7407e9ecaa680c844bf5838b4b0ab1d147ccba46c3b335e0e8e9c5c60405160405180910390a4505050565b6000600460003373ffffffffffffffffffffffffffffffffffffffff1673ffffffffffffffffffffffffffffffffffffffff16815260200190815260200160002054905090565b6000600360003373ffffffffffffffffffffffffffffffffffffffff1673ffffffffffffffffffffffffffffffffffffffff16815260200190815260200160002060000154905090565b6107d6610b57565b6000600360003373ffffffffffffffffffffffffffffffffffffffff1673ffffffffffffffffffffffffffffffffffffffff1681526020019081526020016000206001015414610852576040517f6fdc8b0500000000000000000000000000000000000000000000000000000000815260040160405180910390fd5b6000820361088c576040517f28f1d5cf00000000000000000000000000000000000000000000000000000000815260040160405180910390fd5b600081036108c6576040517f28f1d5cf00000000000000000000000000000000000000000000000000000000815260040160405180910390fd5b670de0b6b3a7640000826108da9190610fff565b915081600160009054906101000a900473ffffffffffffffffffffffffffffffffffffffff1673ffffffffffffffffffffffffffffffffffffffff166370a08231336040518263ffffffff1660e01b81526004016109389190611041565b602060405180830381865afa158015610955573d6000803e3d6000fd5b505050506040513d601f19601f820116820180604052508101906109799190611071565b10156109b1576040517f952d78c400000000000000000000000000000000000000000000000000000000815260040160405180910390fd5b600160009054906101000a900473ffffffffffffffffffffffffffffffffffffffff1673ffffffffffffffffffffffffffffffffffffffff166323b872dd3330856040518463ffffffff1660e01b8152600401610a109392919061109e565b6020604051808303816000875af1158015610a2f573d6000803e3d6000fd5b505050506040513d601f19601f82011682018060405250810190610a539190610f9e565b5060008142610a629190610fcb565b905082600360003373ffffffffffffffffffffffffffffffffffffffff1673ffffffffffffffffffffffffffffffffffffffff1681526020019081526020016000206000016000828254610ab69190610fcb565b9250508190555080600360003373ffffffffffffffffffffffffffffffffffffffff1673ffffffffffffffffffffffffffffffffffffffff16815260200190815260200160002060010181905550610b0d82610c3d565b81833373ffffffffffffffffffffffffffffffffffffffff167f8f68355dac7eb1c6bea6756f2fc691ac09c4c44c8a9635f2d7379b8d44eed9dc60405160405180910390a4505050565b600073ffffffffffffffffffffffffffffffffffffffff163373ffffffffffffffffffffffffffffffffffffffff1603610bbd576040517f510fbaea00000000000000000000000000000000000000000000000000000000815260040160405180910390fd5b565b42600360003373ffffffffffffffffffffffffffffffffffffffff1673ffffffffffffffffffffffffffffffffffffffff168152602001908152602001600020600101541115610c3b576040517f6fdc8b0500000000000000000000000000000000000000000000000000000000815260040160405180910390fd5b565b6000600360003373ffffffffffffffffffffffffffffffffffffffff1673ffffffffffffffffffffffffffffffffffffffff16815260200190815260200160002060000154905060008262030d4083610c969190611104565b610ca09190610fff565b9050600160009054906101000a900473ffffffffffffffffffffffffffffffffffffffff1673ffffffffffffffffffffffffffffffffffffffff166370a08231306040518263ffffffff1660e01b8152600401610cfd9190611041565b602060405180830381865afa158015610d1a573d6000803e3d6000fd5b505050506040513d601f19601f82011682018060405250810190610d3e9190611071565b600281905550600254811115610d80576040517f47a6053600000000000000000000000000000000000000000000000000000000815260040160405180910390fd5b8060026000828254610d929190610ec8565b9250508190555080600460003373ffffffffffffffffffffffffffffffffffffffff1673ffffffffffffffffffffffffffffffffffffffff1681526020019081526020016000206000828254610de89190610fcb565b92505081905550505050565b6000819050919050565b610e0781610df4565b82525050565b6000602082019050610e226000830184610dfe565b92915050565b600080fd5b610e3681610df4565b8114610e4157600080fd5b50565b600081359050610e5381610e2d565b92915050565b60008060408385031215610e7057610e6f610e28565b5b6000610e7e85828601610e44565b9250506020610e8f85828601610e44565b9150509250929050565b7f4e487b7100000000000000000000000000000000000000000000000000000000600052601160045260246000fd5b6000610ed382610df4565b9150610ede83610df4565b9250828203905081811115610ef657610ef5610e99565b5b92915050565b600073ffffffffffffffffffffffffffffffffffffffff82169050919050565b6000610f2782610efc565b9050919050565b610f3781610f1c565b82525050565b6000604082019050610f526000830185610f2e565b610f5f6020830184610dfe565b9392505050565b60008115159050919050565b610f7b81610f66565b8114610f8657600080fd5b50565b600081519050610f9881610f72565b92915050565b600060208284031215610fb457610fb3610e28565b5b6000610fc284828501610f89565b91505092915050565b6000610fd682610df4565b9150610fe183610df4565b9250828201905080821115610ff957610ff8610e99565b5b92915050565b600061100a82610df4565b915061101583610df4565b925082820261102381610df4565b9150828204841483151761103a57611039610e99565b5b5092915050565b60006020820190506110566000830184610f2e565b92915050565b60008151905061106b81610e2d565b92915050565b60006020828403121561108757611086610e28565b5b60006110958482850161105c565b91505092915050565b60006060820190506110b36000830186610f2e565b6110c06020830185610f2e565b6110cd6040830184610dfe565b949350505050565b7f4e487b7100000000000000000000000000000000000000000000000000000000600052601260045260246000fd5b600061110f82610df4565b915061111a83610df4565b92508261112a576111296110d5565b5b82820490509291505056fea2646970667358221220991e4f560068193ae817707c0c947965050cbecb762bfa155d385ec2e607558b64736f6c63430008180033",
  "linkReferences": {},
  "deployedLinkReferences": {}
}